:020000040800F2
:10000000000002205909000855090008654F000842
:1000100055090008550900085509000800000000AE
:10002000000000000000000000000000550900086A
:10003000550900080000000055090008E94E0008B5
:100040005509000855090008550900085509000818
:100050005509000855090008550900085509000808
:10006000550900085509000855090008F14A00081B
:10007000FD4A000835330008094B0008154B0008FD
:10008000E1040108CD3C00085509000855090008A5
:1000900055090008550900085509000855090008C8
:1000A00055090008550900085509000855090008B8
:1000B0000DF9000819F9000825F90008013D0008AC
:1000C000550900080D3D0008550900087DF100089C
:1000D00089F10008150301084103010875030108AF
:1000E00055090008550900080000000055090008DE
:1000F0005509000855090008550900085509000868
:10010000550900085509000831F9000895F1000863
:10011000A9030108DD030108550900085509000875
:100120005509000855090008B9F10008EDF100086B
:10013000150501085509000855090008550900086A
:1001400000000000000000000000000000000000AF
:10015000550900085509000855090008110401084F
:10016000193D000855090008F94E00081D4F000808
:1001700055090008414F00085509000855090008B5
:1001800055090008550900084504010879040108CB
:10019000A1F10008ADF10008550900085509000853
:1001A00055090008550900085509000855090008B7
:1001B00011480008550900085509000855090008AC
:1001C0005509000855090008550900085509000897
:1001D0005509000855090008550900085509000887
:1001E0005509000855090008550900085509000877
:1001F0005509000855090008550900085509000867
:100200005509000855090008550900085509000856
:100210005509000855090008550900085509000846
:10022000550900085509000855090008000000009C
:10023000550900085509000800000000550900088C
:100240005509000855090008550900085509000816
:100250005509000855090008550900085509000806
:1002600055090008550900085509000855090008F6
:100270005509000855090008AD04010800000000F8
:10028000550900085509000855090008000000003C
:08029000000000005509000800
:1002980010B5054C237833B9044B13B10448AFF3B8
:1002A80000800123237010BDE0030024000000003B
:1002B800884E010808B5034B1BB103490348AFF347
:1002C800008008BD00000000E4030024884E0108F7
:1002D80081F0004102E000BF83F0004330B54FEAEF
:1002E80041044FEA430594EA050F08BF90EA020F5C
:1002F8001FBF54EA000C55EA020C7FEA645C7FEAEF
:10030800655C00F0E2804FEA5454D4EB5555B8BF11
:100318006D420CDD2C4480EA020281EA030382EA82
:10032800000083EA010180EA020281EA0303362D14
:1003380088BF30BD11F0004F4FEA01314FF4801CE7
:100348004CEA113102D0404261EB410113F0004FF9
:100358004FEA03334CEA133302D0524263EB4303B0
:1003680094EA050F00F0A780A4F10104D5F1200E4E
:100378000DDB02FA0EFC22FA05F2801841F10001A9
:1003880003FA0EF2801843FA05F359410EE0A5F17D
:1003980020050EF1200E012A03FA0EFC28BF4CF0AE
:1003A800020C43FA05F3C01851EBE37101F0004564
:1003B80007D54FF0000EDCF1000C7EEB00006EEB71
:1003C8000101B1F5801F1BD3B1F5001F0CD34908FB
:1003D8005FEA30004FEA3C0C04F101044FEA445252
:1003E80012F5800F80F09A80BCF1004F08BF5FEAD9
:1003F800500C50F1000041EB045141EA050130BDB9
:100408005FEA4C0C404141EB0101013C28BFB1F5CA
:10041800801FE9D291F0000F04BF01460020B1FA15
:1004280081F308BF2033A3F10B03B3F120020CDAE8
:100438000C3208DD02F1140CC2F10C0201FA0CF0C6
:1004480021FA02F10CE002F11402D8BFC2F1200C2B
:1004580001FA02F120FA0CFCDCBF41EA0C019040E1
:10046800E41AA2BF01EB0451294330BD6FEA04042A
:100478001F3C1CDA0C340EDC04F11404C4F1200215
:1004880020FA04F001FA02F340EA030021FA04F327
:1004980045EA030130BDC4F10C04C4F1200220FA7E
:1004A80002F001FA04F340EA0300294630BD21FABC
:1004B80004F0294630BD94F0000F83F4801306BF82
:1004C80081F480110134013D4EE77FEA645C18BF76
:1004D8007FEA655C29D094EA050F08BF90EA020F0D
:1004E80005D054EA000C04BF1946104630BD91EA05
:1004F800030F1EBF0021002030BD5FEA545C05D108
:100508004000494128BF41F0004130BD14F5800446
:100518003CBF01F5801130BD01F0004545F0FE41BA
:1005280041F470014FF0000030BD7FEA645C1ABFEF
:10053800194610467FEA655C1CBF0B46024650EA26
:10054800013406BF52EA033591EA030F41F4002152
:1005580030BD00BF90F0000F04BF0021704730B5D8
:100568004FF4806404F132044FF000054FF00001AD
:1005780050E700BF90F0000F04BF0021704730B56E
:100588004FF4806404F1320410F0004548BF404243
:100598004FF000013EE700BF42004FEAE2014FEA98
:1005A80031014FEA02701FBF12F07F4393F07F4F73
:1005B80081F06051704732F07F4208BF704793F076
:1005C8007F4F04BF41F40021704730B54FF4607489
:1005D80001F0004521F000411CE700BF50EA01028C
:1005E80008BF704730B54FF000050AE050EA010235
:1005F80008BF704730B511F0004502D5404261EBA5
:1006080041014FF4806404F132045FEA915C3FF4E5
:10061800D8AE4FF003025FEADC0C18BF03325FEA82
:10062800DC0C18BF033202EBDC02C2F1200300FA33
:1006380003FC20FA02F001FA03FE40EA0E0021FA58
:1006480002F11444BDE600BF53B94AB9002908BFF6
:1006580000281CBF4FF0FF314FF0FF3000F074B995
:10066800ADF1080C6DE904CE00F006F8DDF804E001
:10067800DDE9022304B070472DE9F047089D0446E0
:100688008E46002B4DD18A42944669D9B2FA82F23D
:1006980052B101FA02F3C2F1200120FA01F10CFA79
:1006A80002FC41EA030E94404FEA1C48210CBEFBB1
:1006B800F8F61FFA8CF708FB16E341EA034306FB3A
:1006C80007F199420AD91CEB030306F1FF3080F0C9
:1006D8001F81994240F21C81023E63445B1AA4B216
:1006E800B3FBF8F008FB103344EA034400FB07F7B8
:1006F800A7420AD91CEB040400F1FF3380F00A81F9
:10070800A74240F207816444023840EA0640E41BED
:1007180000261DB1D4400023C5E900433146BDE899
:10072800F0878B4209D9002D00F0EF800026C5E93B
:10073800000130463146BDE8F087B3FA83F6002E53
:100748004AD18B4202D3824200F2F980841A61EBCB
:10075800030301209E46002DE0D0C5E9004EDDE7E9
:1007680002B9FFDEB2FA82F2002A40F09280A1EBD1
:100778000C014FEA1C471FFA8CFE0126200CB1FB26
:10078800F7F307FB131140EA01410EFB03F088421F
:1007980008D91CEB010103F1FF3802D2884200F2AC
:1007A800CB804346091AA4B2B1FBF7F007FB10113E
:1007B80044EA01440EFB00FEA64508D91CEB0404DC
:1007C80000F1FF3102D2A64500F2BB800846A4EB37
:1007D8000E0440EA03409CE7C6F12007B34022FA22
:1007E80007FC4CEA030C20FA07F401FA06F31C4351
:1007F800F9404FEA1C4900FA06F3B1FBF9F8200C5E
:100808001FFA8CFE09FB181140EA014108FB0EF0A3
:10081800884202FA06F20BD91CEB010108F1FF3AF3
:1008280080F08880884240F28580A8F102086144FF
:10083800091AA4B2B1FBF9F009FB101144EA01410D
:1008480000FB0EFE8E4508D91CEB010100F1FF34B8
:100858006CD28E456AD90238614440EA0840A0FB50
:100868000294A1EB0E01A142C846A64656D353D026
:100878005DB1B3EB080261EB0E0101FA07F722FA4A
:1008880006F3F1401F43C5E9007100263146BDE873
:10089800F087C2F12003D8400CFA02FC21FA03F3D6
:1008A800914001434FEA1C471FFA8CFEB3FBF7F057
:1008B80007FB10360B0C43EA064300FB0EF69E427C
:1008C80004FA02F408D91CEB030300F1FF382FD215
:1008D8009E422DD9023863449B1B89B2B3FBF7F6BD
:1008E80007FB163341EA034106FB0EF38B4208D996
:1008F8001CEB010106F1FF3816D28B4214D9023ED7
:100908006144C91A46EA004638E72E46284605E7F4
:100918000646E3E61846F8E64B45A9D2B9EB0208C5
:1009280064EB0C0E0138A3E74646EAE7204694E755
:100938004046D1E7D0467BE7023B614432E7304688
:1009480009E76444023842E7704700BFFEE700BF8A
:100958000B480C4A904203D0121A0B4913F00CFEB4
:100968000A480B4A904203D0121A002113F012FED3
:1009780004F01EFD13F0DCFD00F0E2F8FEE700BF16
:1009880000000024E0030024BC4E0108E00300241A
:10099800D4440624704700BF704700BF704700BFAB
:1009A800704700BF704700BF2DE9F04FDFF888910E
:1009B80004460D4617464846554E2DED028B87B026
:1009C80000F080FA484600F08DFA524802F02EF9FD
:1009D800514802F02BF9514802F07CF9F1EE047A03
:1009E800304620EE270A86ED020A13F09DF94C489E
:1009F80086ED070A02F06EF999F862314948FF3B23
:100A080086ED010A18BF0123337002F063F9464EE0
:100A1800464886ED000A02F05DF9454886ED010A70
:100A280002F058F999F88C311BB199F892317F2B63
:100A38005AD0002F40D0013F0026DFF800810DF189
:100A48000C0A7F08DFF8E8B00BE023682B606368C6
:100A58006B60731CB74204F1080405F108051E46D3
:100A68002AD094ED018A02ABD4ED008A05AADBED09
:100A78000C7A04A92C4828EEA77ACDF800A068EED5
:100A8800277A8DED047ACDED057A12F019FE98F8E3
:100A98000030002BD9D199F87231FF2B11D09DED80
:100AA800027ADDED037A77EE288A37EE888AC5ED7B
:100AB800008A85ED018ACCE707B0BDEC028BBDE862
:100AC800F08F134812F06CFFDDED027A1048E0EE6B
:100AD800278AC5ED008A12F063FFDDED037AA0EEE8
:100AE800278A85ED018AB4E7DFF85080F7EE007AAF
:100AF8009FED100A98F80030064883F00103002B98
:100B080088F8003007FE800A02F07EF891E700BFFF
:100B1800500B0024180B0024340B00247C0B0024F9
:100B2800FC03002468170624B40B0024F8160624D6
:100B38003017062400000000380400243404002480
:100B4800F0B500216448654D0027654E2DED028BF8
:100B58008BB0DFED648A00F085FC5F4800F0ACF9EB
:100B68000C21A5F16800B0EE408A02AC00F07EF9D5
:100B7800DFED5D0A9FED5D0A0FCD0FC495E80F000C
:100B880084E80F00022202A9594802F073F805F11F
:100B9800300C0DF1080EDFED570A9FED570ABCE83F
:100BA8000F00AEE80F009CE80F0084E80F00022257
:100BB80002A9524802F05EF805F1700C0DF1080E1A
:100BC800F7EE000AB0EE680ABCE80F00AEE80F00C6
:100BD8009CE80F0084E80F003A4602A9484802F052
:100BE80049F805F1100C0DF1080EDFED460A9FEDEE
:100BF800460ABCE80F00AEE80F009CE80F0084E846
:100C08000F00022202A9414802F034F805F1500C05
:100C18000DF1080EDFED340A9FED3D0ABCE80F0028
:100C2800AEE80F009CE80F0084E80F003A4602A9DE
:100C3800384802F01FF8B0EE480A374812F080FC36
:100C4800B7EE007A4FF07C539FED340A304686EDBC
:100C5800048AC7EE087A7360F36086ED020AC6ED6F
:100C6800068AC6ED057A13F05FF840F201131620E4
:100C780086ED070A3385377000F070FCADF8040084
:100C88003A469FED270A0199264801F099FF172057
:100C980000F064FCADF8080002993A469FED220A7C
:100CA800224801F08DFF1F4801F0C0FF204B0122B0
:100CB800A5F178001A7000F001F91E49A5F1780035
:100CC80000F0D2F8064812F06BFE184801F09CFFBD
:100CD800164801F0ABFFF5E738040024A00400240F
:100CE800500B00240000000077BE7F3F9A99193FFF
:100CF8006817062400409C460000FA43F8160624AC
:100D0800301706249A99193E0AD7A33B7C0B002476
:100D18006666263FFC030024B40B00240000C8428A
:100D280000007A44180B002400401C46340B0024B1
:100D380034040024B109000870B50023224D234C67
:100D48004FF400722B6005F2DE406B612B62EB639F
:100D5800C5F8C8341E4E1F4913F00EFC22461E4922
:100D6800284612F0E7FF224631461C4812F0E2FFFF
:100D7800224631461A4812F0DDFF2246314619480C
:100D880012F0D8FF22463146174812F0D3FF224608
:100D98003146164812F0CEFF154D22461549164821
:100DA80012F0C8FF22461549154812F0C3FF224623
:100DB8002946144812F0BEFF224629461248BDE8CB
:100DC800704012F0B7BF00BF3804002400000024B0
:100DD8009D090008AC450108A50900086817062404
:100DE800F8160624301706247C0B0024FC03002484
:100DF800A1090008AD090008B40B0024A9090008DE
:100E0800500B0024180B0024340B002410B5037D6C
:100E180082B0044601335BB20375037D5BB2012BDC
:100E280003DDFF23037502B010BD037D826859B24C
:100E380040FA83F3019001EB81110A44197B094BB5
:100E480041F040010093412303F09EF90028EAD0C5
:100E5800204603F06FF90146204602B0BDE8104075
:100E680003F0D2B8150E000800F08EBBF8B50546A1
:100E780000F092FB05F1680405F59476284600F029
:100E8800A7FB2046203401F001FEB442F6D105F557
:100E98008D6405F59B67284600F09AFB23461C34B1
:100EA80083ED000ABC42F6D1284600F091FB30469B
:100EB800BDE8F84001F0EABD00F06ABB183002F066
:100EC800C9B900BF38B500F1680400F5947520462B
:100ED800203401F0B7FDAC42F9D12046BDE83840D6
:100EE80001F0B0BD38B500F5A47400F5DC754030EC
:100EF80001F028FE2046103401F05CFFAC42F9D125
:100F080038BD00BF2DE9F04F89B08446D0F8CC44F5
:100F180004270DF10F060DF107050DF117090DF165
:100F28001808B24640F6FE7E01965E4B04AEBCF849
:100F3800DEB493E8030002ABF34583E8030015F839
:100F4800012F4FEA221102F00F0301EB811117FB69
:100F580003132344B3F80120C2F30B020BEB020185
:100F680088BF42F48052C1F30B01A3F80120A3F813
:100F780003104D49019B03C986E803004B4913F848
:100F8800012F03C9019302F00F0388E80300101131
:100F9800BCF8DE1400EB8010714517FB03032344F3
:100FA800B3F80120C2F30B0201EB020088BF42F440
:100FB8008052C0F30B00A3F80120A3F8030019F82E
:100FC800013FBCF8DE141A1103F00F03714502EB60
:100FD800821202EB83032344B3F80120C2F30B020D
:100FE80001EB020042F4805BC0F30B00A3F803009E
:100FF80052D9AA45A3F801B097D1B4F83D2040F6DC
:10100800FE70BCF8DE14C2F30B028B18C3F30B039B
:10101800A4F83F3040F6FE739942B4F8663088BFB2
:1010280042F48052C3F30B03A4F83D20BCF8DE144D
:101038005A18C2F30B02A4F8682040F6FE729142D7
:10104800B4F86A2088BF43F48053C2F30B02A4F8B3
:101058006630BCF8DE148B18C3F30B03A4F86C30AD
:1010680040F6FE739942B4F86E3088BF42F480525D
:10107800C3F30B03A4F86A20BCF8DE145A188142A3
:10108800C2F30B0288BF43F48053A4F87020A4F87D
:101098006E3009B0BDE8F08FAA45A3F801207FF4AF
:1010A80044AFAAE7AC470108F8470108044801081B
:1010B8002DE9F04387B000270446A94905A8A94EA1
:1010C800059702F0A1FF059B06F18402A64904F5E5
:1010D8009965C4F8C834FF23C4F8D4144FF0060E39
:1010E8003946C4F8D024C4F8CC6484F8DC3401E070
:1010F800D4F8CC640A1101F00F008B00013102EB27
:1011080082129BB2202906F802E002EB8000D4F894
:10111800CC74D4F8D06407EB000CACF80130ACF810
:10112800033006F802E0D4F8D0240244A2F80130D3
:10113800A2F80330DCD194F8D6340B2B0FD0B4F8D6
:10114800D624012304F59B60A4F8D824A4F8DA3443
:10115800039002F093FA0021039802F079FB04F25D
:10116800D44704F2D6494FF0000817F8011B0126AE
:10117800022304AA41F04001284600960391ADF8E5
:10118800108002F0D9FF142003F05AFF022304AAAA
:10119800039928460096ADF8108002F0CDFF142080
:1011A80003F04EFF4FF4005202230399ADF81020CC
:1011B800284604AA009602F0BFFF142003F040FF5F
:1011C800052343F20162039900932846ADF81020E5
:1011D800022304AA02F0B0FFB945C6D12046FFF7A2
:1011E80091FE94F8DC341B06FBD5D4F8CC24D4F853
:1011F800D034C4F8D024C4F8CC34B2F80310A3F81F
:101208000310B2F80710A3F80710B2F80B10A3F8F0
:101218000B10B2F80F10A3F80F10B2F81310A3F8C0
:101228001310B2F81710A3F81710B2F81B10A3F890
:101238001B10B2F81F10A3F81F10B2F82310A3F860
:101248002310B2F82710A3F82710B2F82B10A3F830
:101258002B10B2F82F10A3F82F10B2F83310A3F800
:101268003310B2F83710A3F83710B2F83B10A3F8D0
:101278003B10B2F83F10A3F83F10B2F84410A3F89F
:101288004410B2F84810A3F84810B2F84C10A3F86C
:101298004C10B2F85010A3F85010B2F85410A3F83C
:1012A8005410B2F85810A3F85810B2F85C10A3F80C
:1012B8005C10B2F86010A3F86010B2F86410A3F8DC
:1012C8006410B2F86810A3F86810B2F86C10A3F8AC
:1012D8006C10B2F87010A3F87010B2F87410A3F87C
:1012E8007410B2F87810A3F87810B2F87C10A3F84C
:1012F8007C10B2F88010A3F88010FF2184F8DC1469
:1013080094F8DC3401335BB284F8DC3494F8DC34D0
:101318005BB2012B04DD84F8DC1407B0BDE8F08370
:1013280094F8DC1401954BB244FA81F10F4C03EBAD
:10133800831091F8D41441230094024441F04001F1
:10134800284602F021FF0028E7D0284602F0F2FEE6
:101358000146284602F058FE07B0BDE8F08300BFFA
:10136800104801080000003000010B00150E0008AD
:10137800F0B54FF44073ABB006460222ADF80C301E
:101388000AA8039906F1180701F042FD4FF4C0635B
:1013980002220DF13A00ADF8103006F16805049903
:1013A800002401F035FD40F20113022213A8ADF824
:1013B8001430059901F02CFD4FF4817302220DF1D0
:1013C8005E00ADF81830069901F022FD4FF4E06395
:1013D80002221CA8ADF81C30079901F019FD40F253
:1013E800024302220DF18200ADF82030089901F085
:1013F8000FFD022225A8ADF82420099901F008FD67
:10140800042307220AA9384601F016FDE1B238463E
:1014180001F036FF014630460134019100F0D8F85A
:1014280000232846DFED0E0A203501991A4601F0FF
:10143800D7FA062CEAD12146384601F021FF0146A9
:101448003046019100F0C4F80023DFED050A019948
:1014580006F594701A4601F0C3FA2BB0F0BD00BF30
:101468006F12033BF0B505462DED028B8BB005F5E9
:10147800A4749FED318A019100F06EF80199284615
:1014880000F066F92D4B06AF0FCB3E4607C73B80F1
:1014980005F5DC7736F8023B20461034B0EE480AF2
:1014A800ADF81430059901F06BFCBC42F2D14FF451
:1014B800007140F6061240F201739FED1F0AADF865
:1014C8000C1005F14000ADF8102005F16804ADF8E6
:1014D800183005F594760399049A069B01F002FBEF
:1014E8002846FFF7E5FD2846FFF742FF302128464A
:1014F80000F052F8284600F06BF82046203401F03E
:10150800C5FAB442F6D105F58D6405F59B67284602
:1015180000F05EF823461C3483ED000AA742F6D19A
:10152800284600F055F830460BB0BDEC028BBDE8FC
:10153800F04001F0ABBA00BF00000000B44701085A
:10154800044B06221A7083F8412083F8842083F81C
:10155800C520704700000030704700BF202882B0C7
:1015680009D8084B03EB400213F81030507843EACF
:10157800002002B0704701230C2043EA002002B08B
:10158800704700BF24480108143001F001BA00BFB9
:10159800143001F0F9B900BF38B500F1140504465C
:1015A8002DED028B284601F0E1F9284601F0ECF90F
:1015B8002846B0EE408A01F0D5F9D0ED007AF8EE71
:1015C800677A88EE277ABDEC028B84ED0E7A38BDF7
:1015D80090ED0E0A704700BF10B540F203338EB08D
:1015E80000244FF60B7240F20341ADF8083009A809
:1015F8000123ADF81020ADF824202246ADF80C10D8
:101608000094029907940C94CDE90544CDE90A4465
:1016180001F038FF04A8012322460399009401F041
:1016280031FF09A802F014F810B901200EB010BD5E
:1016380004A802F00DF8A0420CBF022020460EB00C
:1016480010BD00BF2DE9F04103239AB00127002403
:101658000646CDE914373B4BCDE9104340F204531D
:10166800CDE91647ADF84830FFF7B6FFB842054652
:1016780025D0022845D040F60132334B0DF12C0815
:101688001894ADF82C200B981997CDF84A3000F033
:10169800D7F810A906F13C0003F0B2FA3020032273
:1016A8004FF07E5341460D930E93CDE90B02F26B3A
:1016B80006F1140001F01EF91AB0BDE8F0811023FC
:1016C800214A06A906908DF828300DF12C081F4BE9
:1016D800CDF84A2007930294CDE91804CDE908040F
:1016E80002A802F091FC0823029A03A94046ADF82B
:1016F8000C508DF80E40049505930B9400F0E0F81B
:10170800C7E700200121104B0DF12C083A46009440
:10171800CDF84A304FF60B730C94ADF82C302346B5
:10172800CDE9180140F601314046ADF81810069988
:10173800CDE90D4401F0A6FE2146404601F094FF94
:10174800A7E700BF04020404040604030704010B0E
:101758002DE9F04304462DED028B83B0002948D0D3
:10176800012140F2011200230091ADF804208DF808
:101778000630304A0126304B271D304904F129082C
:10178800626040F20272A36040F60663E16004F111
:1017980025092682A4F8252084F82760A4F8293092
:1017A80084F82B6003F0BAFD6946054648B304F196
:1017B80030008DF8066003F00FFD072D34D104F1D9
:1017C80014052046FFF73EFF284601F0DDF82846BD
:1017D800B0EE408A01F0C6F8D0ED007AF8EE677AEC
:1017E80088EE277A84ED0E7A03B0BDEC028BBDE853
:1017F800F08340F2011300918DF80610ADF8043023
:10180800B7E704F1300003F0E7FC3946204602F060
:1018180077FE484601F032FF404601F02FFF04F101
:10182800120000F077F9CAE73946204602F068FE50
:10183800C5E700BF0508050905070506050A0606E8
:1018480010B584B003460124ADF8040003A8ADF830
:101858000C30ADF80E4001F011FF214603A801F04D
:10186800F7FF204603F0ECFB002103A801F0F0FF8E
:10187800204603F0E5FB214603A801F0E9FF04B088
:1018880010BD00BF10B5C2F3002384B00C46017C24
:101898008DF80D2043EA4402FA2402238DF80C2027
:1018A80003AA009402F048FC18B10124204604B0B1
:1018B80010BD04460A2003F0C3FB204604B010BD47
:1018C800034670B543F8042B044684B007C983E87F
:1018D8000700A37983B91A210B461E22FA2523741F
:1018E8002046ADF80C20022303AA009502F024FC40
:1018F80028B1012004B070BD1B210B46EDE70A207A
:1019080003F09EFB4FF4B85200950223ADF80C206B
:10191800204603AA217C02F00FFC0028E9D10A2006
:1019280003F08EFB41F2027200950223ADF80C2001
:10193800204603AA217C02F0FFFB0028D9D10A2007
:1019480003F07EFB042200950223ADF80C2020460C
:1019580003AA217C02F0F0FB0028CAD10A2003F078
:101968006FFB062200950223ADF80C20204603AA3F
:10197800217C02F0E1FB0028BBD10A2003F060FBC8
:1019880041F2082200950223ADF80C20204603AA54
:10199800217C02F0D1FB0028ABD10A20064603F0D7
:1019A8004FFB0095022303AA217C2046ADF80C606A
:1019B80002F0C2FB00289CD1304603F041FB0095A1
:1019C80022790C232046002A8DF80C3003AA4FF008
:1019D800020314BF622142218DF80D10217C02F010
:1019E800ABFB002885D1304603F02AFB2279D4E9E5
:1019F80002310B43DBB20AB943F0400362790AB102
:101A080043F020030E22FA258DF80D30204600956C
:101A180002238DF80C2003AA217C02F08DFB0028FC
:101A28007FF467AF0A2003F00BFB10220095022316
:101A3800ADF80C20204603AA217C02F07DFB00288B
:101A48007FF457AF0A2003F0FBFA12210095022316
:101A5800ADF80C1003AA217C204602F06DFB00288B
:101A68007FF447AF0A2003F0EBFA01220921204650
:101A7800FFF708FF003818BF01203BE7F0B5102337
:101A880087B0234C012200250126002702A9204601
:101A98000195CDE902234FF48052CDE904670BF09C
:101AA80053FC642003F0E0FE02A94FF48052204664
:101AB800CDE9046702261027CDE902670BF044FC44
:101AC8000322102302A92046CDE902230023042281
:101AD800CDE904234FF480520BF036FC40F2322358
:101AE800042202A9019310232046CDE90223019A7A
:101AF800012305924FF4805204930BF025FC40F625
:101B0800060120460BF040FC284607B0F0BD00BF98
:101B1800A81706241C4B00221C494FF0400C30B576
:101B2800054689B00220596007219A601A6201248B
:101B3800DA620A224FF4006EDC6006922022CDE9B8
:101B4800000104200821CDE9020103201021CDE97C
:101B5800040108206946C3E904024FF4C072181D45
:101B6800C3E906C24FF48052C3E909E20BF0C2FB95
:101B780038B92846FFF782FF003818BF012009B09E
:101B880030BD204609B030BDA4170624404100529C
:101B9800614A0021D0B513688EB00A91002B40F03D
:101BA800B9805E4B01214FF683700C24116002212D
:101BB800D3F8D4200026032742F48052C3F8D42057
:101BC800D3F8D42002F480520092009AD3F8E0208F
:101BD80042F01002C3F8E020D3F8E02002F010022F
:101BE8000192019AD3F8E02042F04002C3F8E020C5
:101BF800D3F8E02002F040020292029AD3F8E020E3
:101C080042F00802C3F8E020D3F8E02002F008020E
:101C18000392039AD3F8E02042F48072C3F8E020DC
:101C2800D3F8E02002F480720492049AD3F8E020FA
:101C380042F08002C3F8E020D3F8E02002F08002EE
:101C48000592059AD3F8E02042F02002C3F8E0207C
:101C5800D3F8E02002F020020692069AD3F8E0209A
:101C680042F00402C3F8E020D3F8E0300C9403F00B
:101C7800040307930323079A0B93CDE9080108A9E6
:101C8800274805F077FC48F23712022308A92548AF
:101C98000C94CDE90823CDE90A6705F06BFC4CF2FA
:101CA8000372022308A920480C94CDE90823CDE942
:101CB8000A6705F05FFC40F2FF62022308A91B488F
:101CC8000C94CDE90823CDE90A6705F053FC4FF6DB
:101CD8000C72022308A916480C94CDE90823CDE913
:101CE8000A6705F047FC4FF63F02022308A911488E
:101CF8000C94CDE90823CDE90A6705F03BFC2022C6
:101D0800022308A90A480C94CDE90A67CDE90823FB
:101D180005F030FC0EB0D0BDA017062400440258D0
:101D28000010025800180258000C025800200258EF
:101D3800001C0258001402582DE9F04FDFF81084F7
:101D480006460D46144608F118002DED028B89B0A1
:101D580000AF03F04DF8D8F8183073B3D8F81C303A
:101D6800D8F80490002B43690BBF4FF0080A4FF0D6
:101D7800100A4FF0020B4FF0040BB9F1000F2AD0F4
:101D8800A200EA46012B02F1070222F00702ADEB9E
:101D9800020D6846ADEB020D694600F03F81022B4B
:101DA80000F0D680002B6FD02246C847D54624378E
:101DB800BD46BDEC028BBDE8F08FD8F81C30002B77
:101DC800F5D0D8F804904FF0080A4FF0020B436999
:101DD800B9F1000FD4D1FB61D8F80030BB61002BFA
:101DE800E5D0D54803F076F86B46BBF1020F786171
:101DF80008EE103AFB6900F083816A465146A2EB6F
:101E0800C40295466200EA46B2FBFBF2AAEBC400A4
:101E180085460AEB8200EE46F861ADEB010DF869E4
:101E28000EEB820CC7F810C0EC46ADEB010D00EBD1
:101E38008201CCF80400CCF8081001EB8201386963
:101E4800E946CCF80C1000EB8201CCF800A001EBBD
:101E58008202C9E900E0C9E90212012B00F064839B
:101E6800022B00F06C82002B00F08081620849464A
:101E78006046BB69984718EE103A24379D46BD4620
:101E8800BDEC028BBDE8F08F002C8DD01A46D8ED42
:101E98000C6A9FEDB27A8446331D36F922E00CF1C4
:101EA800080C07EE90EA33F922E00232F8EEE77AFE
:101EB800944267EE877A67EEA67A4CED027A07EECF
:101EC80090EAF8EEE77A67EE877A67EEA67A4CED45
:101ED800017AE2D8F9612246C847984ED8ED0D6AD2
:101EE8000020F9692B1D9FED9E7A9FED9E6ADFED1C
:101EF8009E5A22E0F4EEC67AF1EE10FAC0F2C884D7
:101F080047F6FE72D1ED017A45F8202066EEA77AF1
:101F1800F4EEC77AF1EE10FA40F2F080F4EEC67AE9
:101F2800F1EE10FAC0F2D58447F6FE7243F820208D
:101F38000230083184427FF639AFD1ED007A66EE7F
:101F4800A77AF4EEC77AF1EE10FAD3D83246D9E779
:101F5800002C3FF429AFD8ED0C6A84469FED787ABF
:101F68000022331D8E4656F822100CF1080C07EE9D
:101F7800901A53F822100232F8EEE77A944267EE8C
:101F8800877A67EEA67A4CED027A07EE901AF8EE99
:101F9800E77A67EE877A67EEA67A4CED017AE2D89F
:101FA80071462246C7F81CE0C847664ED8ED0D6A50
:101FB8000020F9692B1D9FED6A7A9FED6A6ADFF8A8
:101FC80094C120E0F4EEC67AF1EE10FAC0F27984FA
:101FD8003246D1ED017A45F8202066EEA77AF4EE74
:101FE800C77AF1EE10FA40F28780F4EEC67AF1EE85
:101FF80010FAC0F25E84324643F8202002300831DD
:1020080084427FF6D3AED1ED007A66EEA77AF4EE7D
:10201800C77AF1EE10FAD5D86246DAE7002C3FF419
:10202800C3AED8ED0C6A86469FED477A4FF0000C98
:10203800331D56F82C200EF1080E82F40002A2F58A
:10204800000207EE902A53F82C200CF1020CF8EE4F
:10205800E77A82F400026445A2F5000267EE877A07
:1020680067EEA67A4EED027A07EE902AF8EEE77A46
:1020780067EE877A67EEA67A4EED017AD9D8F961CC
:102088002246C847314ED8ED0D6A0020F9692B1D4C
:102098009FED337A9FED336ADFF8BCC01FE0F4EEA2
:1020A800C67AF1EE10FAC0F2FC833246D1ED017A1D
:1020B80045F8202066EEA77AF4EEC77AF1EE10FA1A
:1020C80018D9F4EEC67AF1EE10FAC0F2DA83324685
:1020D80043F820200230083184427FF667AED1ED04
:1020E800007A66EEA77AF4EEC77AF1EE10FAD6D83F
:1020F8006246DBE76246EBE762467DE7324615E774
:10210800A100D6466208073121F00701ADEB010DA9
:10211800EA46ADEB010D6946ADEB0E0D0AEB820008
:10212800EC46ADEB0E0D01EB8202F861E946CCE915
:1021380000A0C9E9001290E6F81706240280FFFF04
:10214800000000300082FF7F0000003482FF7F0023
:10215800DC170624007E00807E0080FF0000003827
:1021680004FF7FBF04FF7F3F00FEFF46002C00F006
:10217800C982BBF1020FD8F8242000F0FA827969ED
:10218800C7F8049002EB810E5FED0C5A8A00DCF868
:1021980008100EF104007A611A46DCF80C303B6135
:1021A800331DD7F810903D61FD69C7E902CB8C4615
:1021B800834636F92210D8ED0C7A06EE101A33F958
:1021C800221006EE901A3EF92210B8EEC66A07EE03
:1021D800101AF8EEE66A3BF92210B8EEC77A26EE36
:1021E800256A66EEA56A27EE257A26EE276A66EE48
:1021F800A76A27EE277A07EE901A51080232F8EEFE
:10220800E77A0AEB8100944280ED006A05EB8100D1
:1022180067EEA57AC0ED006A0CEB810009EB81013D
:1022280080ED007A98ED0C7A67EE877AC1ED007A36
:10223800BFD8D7F804903D69D7E902CB6046620859
:10224800BB6949469847D8F82C307A69D8ED0D6AA9
:102258001A441FED3D7A1FED3D6A2B1D904602F191
:10226800040A5FED3F5A0022A84ED9E900EC51E07C
:10227800F4EEC67AF1EE10FAC0F2C78247F6FE70A5
:1022880045F822000CEB0100D0ED007A66EEA77A43
:10229800F4EEC77AF1EE10FA4BD9F4EEC67AF1EE05
:1022A80010FAC0F2BA8247F6FE70BBF1020F43F88B
:1022B80022002BD0D9F808000844D0ED007A66EE49
:1022C800A77AF4EEC77AF1EE10FA36D9F4EEC67AA8
:1022D800F1EE10FAC0F2CD8247F6FE7048F82200FF
:1022E800D9F80C000144D1ED007A66EEA77AF4EE35
:1022F800C77AF1EE10FA1ED9F4EEC67AF1EE10FAAA
:10230800C0F2AF8247F6FE714AF8221002329442B8
:102318007FF6B1AD51080EEB81008900D0ED007A4F
:1023280066EEA77AF4EEC77AF1EE10FAA0D8304636
:10233800A6E73046B9E73146E6E73046CEE7002C57
:1023480000F0E081BBF1020FD8F8243000F0E18101
:102358007A69DCF8081003EB820EC7F80490930042
:10236800DFED6B5A0EF1040000227B61DCF80C30C3
:102378003B61331DD7F810903D61FD69C7E902CB79
:102388008C46834656F82210D8ED0C7A07EE101AC0
:1023980053F82210B8EEC76A07EE101A5EF822103A
:1023A800F8EEC76A07EE101A26EE256A5BF82210C7
:1023B800B8EEC77A66EEA56A26EE276A27EE257A72
:1023C80066EEA76A27EE277A07EE901A51080232BE
:1023D800F8EEE77A0AEB8100944280ED006A05EB9B
:1023E800810067EEA57AC0ED006A0CEB810009EB6D
:1023F800810180ED007A98ED0C7A67EE877AC1ED5D
:10240800007ABFD8D7F804903D69D7E902CB604677
:102418006208BB6949469847D8F82C307A69D8EDE4
:102428000D6A1A449FED3E7A9FED3E6A131D92464F
:10243800DFF8E4C00022FB612B1D364ED9E9008E7F
:102448004EE0F4EEC67AF1EE10FAC0F2FC813046A6
:1024580045F822000EEB0100D0ED007A66EEA77A6F
:10246800F4EEC77AF1EE10FA49D9F4EEC67AF1EE35
:1024780010FAC0F2EF813046BBF1020F43F8220098
:102488002AD0D9F808000844D0ED007A66EEA77A79
:10249800F4EEC77AF1EE10FA35D9F4EEC67AF1EE19
:1024A80010FAC0F2C98130464AF82200D9F80C0067
:1024B8000144D1ED007A66EEA77AF4EEC77AF1EE20
:1024C80010FA1ED9F4EEC67AF1EE10FAC0F2AD8118
:1024D8003146F86940F82210023294427FF6CBACBC
:1024E800510808EB81008900D0ED007A66EEA77AE2
:1024F800F4EEC77AF1EE10FAA3D86046A8E7604672
:10250800BAE76146E5E76046CEE700BF0280FFFF15
:10251800000000300082FF7F007E00800000003451
:1025280004FF7FBF04FF7F3F002C00F0EB807A6937
:102538000021D8F82430C7F8109003EB820ED7F8A2
:102548001C909300FD610EF104021FED0C6A7B6183
:10255800331D154656F821204808D8ED0C6ABBF102
:10256800020F82F40002A2F5000207EE902A53F847
:10257800212082F40002B8EEE77AA2F5000227EEE5
:10258800067A07EE902A0AEB8002F8EEE77A27EE41
:10259800267A67EE867A82ED007A09EB80024FEAA6
:1025A800800067EEA67AC2ED007A27D05EF8212077
:1025B80082F40002A2F5000207EE902A55F82120C5
:1025C80082F40002B8EEE77AA2F5000227EE067A56
:1025D80007EE902ADCF80820F8EEE77A024427EEA6
:1025E800267A67EE867A82ED007A98ED0C7ADCF826
:1025F8000C2067EE877A0244C2ED007A02318C42E1
:10260800A8D8D7F8109060466208BB694946FD69AA
:102618009847D8F82C307A69D8ED0D6A1A441FED1E
:10262800407A1FED406A131D9246DFF8C4C20022AB
:10263800FB612B1DAB4ED9E9008E4EE0F4EEC67A55
:10264800F1EE10FAC0F2C580304645F822000EEBD4
:102658000100D0ED007A66EEA77AF4EEC77AF1EEC3
:1026680010FA49D9F4EEC67AF1EE10FAC0F2BF803A
:102678003046BBF1020F43F822002AD0D9F80800EF
:102688000844D0ED007A66EEA77AF4EEC77AF1EE48
:1026980010FA35D9F4EEC67AF1EE10FAC0F2AE802F
:1026A80030464AF82200D9F80C000144D1ED007AEE
:1026B80066EEA77AF4EEC77AF1EE10FA1ED9F4EEB8
:1026C800C67AF1EE10FAC0F28B803146F86940F80C
:1026D8002210023294427FF6CEAB510808EB8100FB
:1026E8008900D0ED007A66EEA77AF4EEC77AF1EEAB
:1026F80010FAA3D86046A8E76046BAE76146E5E75E
:102708006046CEE7224649466046BB699847FFF7D0
:10271800B2BBC7F810B0002298ED0C6A331DDFED8C
:10272800726AD7F81CB0786956F8221007EE901A2A
:1027380053F82210B8EEE77A07EE901A51080232E1
:10274800F8EEE77A27EE267A0AEB810E94420BEB35
:10275800810167EEA67A27EE067A67EE867A8EED15
:10276800007AC1ED007ADFD88300D7F810B07B611A
:102778004DE61A46C7F810B098ED0C6A331DDFED28
:102788005B6AD7F81CB0786936F9221007EE101A80
:1027980033F9221007EE901AB8EEC77A51080232C0
:1027A800F8EEE77A27EE267A0AEB810E94420BEBD5
:1027B800810167EEA67A27EE067A67EE867A8EEDB5
:1027C800007AC1ED007ADFD88300D7F810B07B61BA
:1027D80034E5F0EE675AFEEEE45A15EE900A34E757
:1027E800F0EE675AFEEEE45A15EE901A6EE7F0EE38
:1027F800675AFEEEE45A15EE900A3AE7F0EE675A89
:10280800FEEEE45A15EE900A4BE767EEA57AFDEE68
:10281800E77A17EE900A00B232E567EEA57AFDEE88
:10282800E77A17EE900A00B23FE5F0EE675AFEEE3F
:10283800E05A15EE901A4CE6F0EE675AFEEEE05AB2
:1028480015EE900A30E6F0EE675AFEEEE05A15EE05
:10285800900AFDE5F0EE675AFEEEE05A15EE900A92
:102868000AE667EEA57AFDEEE77A17EE901A09B246
:102878004AE567EEA57AFDEEE77A17EE900A00B210
:102888002CE5F0EE675AFEEEE45A15EE902A1FE4A6
:1028980067EEA57AFDEEE77A17EE902A12B2FFF7F7
:1028A80031BBF0EE675AFEEEE45A15EE902AFFF7B8
:1028B800FDBBF0EE675AFEEEE05A15EE902AFFF7E0
:1028C8009BBBF0EE675AFEEEE05A15EE902AFFF732
:1028D80080BB67EEA57AFDEEE77A17EE902A12B272
:1028E800FFF724BB82FF7F000000003000000038A3
:1028F8007E0080FF30B5184C154685B0046004F1A1
:10290800080EEC460FC98EE80F00D4ED047AF5EEF8
:10291800C07A8CE80F00F1EE10FA1ADDB7EE006A03
:1029280094ED057A27EE277AC6EE276A84ED0D7AAC
:10293800C4ED0C6A6DB1204640F8185F02F058FAF1
:10294800064903690020064A2162A262E36005B0D5
:1029580030BD012005B030BDDC1706240821003049
:102968000801003000680830704700BFB1F5807F6B
:1029780003680A4628BF4FF48072B1F5807F9A60D9
:1029880094BF0020012070470068183002F090BA08
:1029980030B5046883B008480D46A368A26A216A66
:1029A8009B00009004F1180002F024FA0020C4E90A
:1029B800000503B030BD00BF411D000810B4074B2F
:1029C8004FF07E5130240022032019619C60D860AA
:1029D8005DF8044B5961C3E906227047DC170624E9
:1029E800F6EE007A9FED166A20EE207A0160F7EE87
:1029F800006A80ED036A80ED020A27EE277AC6EEA8
:102A0800877AF4EEE67AF1EE10FA11DDF0EE667AE6
:102A18004FF07E514FF0000C02760022C0ED017A93
:102A2800C0F814C0016143768276C0ED070A70478A
:102A3800F4EEC67AF1EE10FAEAD5F0EE467AE7E758
:102A4800000000000268037E128807EE902AFBEE61
:102A5800C87A1BB1B7EE007A77EE677AD0ED056ACF
:102A680090ED047A77EEE67A437E67EE877A0BB1CB
:102A7800F1EE677A90ED030A90ED017A77EEC07A6D
:102A8800A7EE270A80ED030A704700BF837E80ED1A
:102A9800020AABB9D0ED077A27EE800AF6EE007A83
:102AA800B7EE007A20EE270AC7EE007AF4EEC77A6E
:102AB800F1EE10FA07DDF0EE477AC0ED017A7047C3
:102AC800DFED067AE8E7F5EEC07AF1EE10FAF4D514
:102AD800DFED037AC0ED017A704700BF6F12033B48
:102AE8000000000030B585B004460025ADF80C1094
:102AF800ADF80820ADF8043002F0A0FABDF80C20BB
:102B08004FF48073206004F118002283BDF8082078
:102B18006383E383A283257100F0B0FD04F11C00F8
:102B280000F0ACFD9FED060A019904F1080000F0E1
:102B380027F94FF6FF736562238405B030BD00BFE7
:102B480000000000F8B5044602F078FA0026236871
:102B58002671834205D104F10800BDE8F84000F071
:102B680029B9012794F82050206004F11800BD40CD
:102B7800277100F05FFE6DB2284394F82150BD40E4
:102B880084F8200004F11C0000F054FE94F8203072
:102B98006DB2666203F003032843022BC0B284F8C7
:102BA800210009D000F003000228D4D1002BD2D193
:102BB8004FF0FF336362CEE78307CCD16762CAE781
:102BC80030B52DED028B83B0044601231546ADF8D0
:102BD80004101730BDF80410B0EE408A0180637607
:102BE80000F04CFDB5FA85F3002200215B0925753C
:102BF800A16084ED048AA5756375C4E9002203B059
:102C0800BDEC028B30BD00BF20EE007ADFED067A06
:102C180027EE000A60EE277A80ED020AFCEEE77ADA
:102C2800C0ED017A704700BF00FF7F4790ED046A4E
:102C3800B7EE007ADFED0E5A0346D0ED036AC5EE13
:102C4800867A77EEA67AF4EEC77AF1EE10FAC8BF64
:102C580077EEC77A90ED027AB4EEE77AC0ED037AA0
:102C68001730F1EE10FACCBF597D997D00F0F0BD18
:102C78000000F042DFED167A8C46B4EE670A10B514
:102C880004468646F1EE10FA2DED028B80ED080A17
:102C980048BFB0EE670AC0ED090AB0EE608A80F856
:102CA8003420BCE80F00AEE80F009CE80F008EE867
:102CB8000F0011F0E5F9F0EE407AB0EE480AC4EDE5
:102CC8000A7A11F0DDF984ED0B0ABDEC028B10BD18
:102CD80095BFD63390F8343010B50446032B4BD843
:102CE800DFE803F03B2A1502FFF7ACFE60EE006A4E
:102CF800D4ED087A94ED097A26EE800A37EE677AE1
:102D0800E0EE077AC4ED0C7AB0EE670A10BDFFF763
:102D180099FE94ED0A7AD4ED0B7A77EEC77AA0EE95
:102D2800277AB0EE470A11F039F9F0EE407A84EDCF
:102D38000C0AB0EE670A10BDFFF784FED4ED087ADE
:102D480094ED097A20EE000A37EE677AE0EE077A0A
:102D5800B0EE670AC4ED0C7A10BDFFF773FED4ED30
:102D6800087A94ED097A37EE677AE0EE077AB0EEE2
:102D7800670AC4ED0C7A10BDD0ED0C7AC4E700BF29
:102D880070B5044682B0C1F30726CDB2ADF8041081
:102D980002F054F94FF480724FF001232060A01D17
:102DA800A571A280E671A36002B0BDE8704000F092
:102DB80065BC00BF38B5044602F040F9002223681C
:102DC8002271834210D00122A57AE37A95402060CF
:102DD8002271A01D6DB243B900F02CFD40B228430A
:102DE800C0B27F28A0720AD038BD00F023FDB0FA27
:102DF80080F040092843C0B27F28A072F4D102F0C5
:102E08001DF907EE900AF8EE677AC4ED037A38BD2B
:102E180000B583B04FF0000E4FF0030C4274ADF8CC
:102E28000410BDF8043080F810E0A0F802C0038058
:102E380003B05DF804FB00BF2DE9F04FDFF81C83F9
:102E480000258DB0C04C037008F14003426007466E
:102E580001920E46202229464046C4F86831C4F83B
:102E68006481CDE90255CDE90455CDE90655CDE992
:102E78000855CDE90A5511F08DFB2022294604F5A5
:102E8800A170C4F83151C4F83551C4F83951C4F8A7
:102E98003D5111F07FFB019B84F8485284F8303192
:102EA8007A68002A6AD02B4604F59871454606F1DF
:102EB800100A9E46F01856F803B0E2180EF1010EFB
:102EC800D0F80CC0D0F80490D0F8088044F803B0CB
:102ED800C2F80CC04FF0000CC2F80490C2F8088089
:102EE800008A25F802CB10821AF8032001F8012F76
:102EF800002A70D07A684FF001001233724584F8C6
:102F08004802D7D84FF4802290489DF80430082111
:102F18004FF000084FF00009C4F884310023C4E9D9
:102F28005B020122C4F8743184F88031C4E95E215F
:102F380094F84812C4E96489A9B3C4F89821002216
:102F480084F8813184F888313B78C4E96722002B02
:102F580038D0012200200121013B84F8A421C4E9D2
:102F68006C01082B30D8DFE813F0BD00C200C700A1
:102F7800CC00D100D600DB00E100E8009DF8043069
:102F88000121C4F87421C4F884314FF4802384F8F3
:102F980080216E4AC4E95B2308230022C4E95E133A
:102FA8000023C4E964230123002284F8813100232B
:102FB80084F888310323C4F898313B78C4E9672240
:102FC800002BC6D184F8A431614803F085F8034684
:102FD80038B1FFBEFEE77A68123372453FF66AAF32
:102FE80090E702A95A48029303F0D4F982460028D0
:102FF80076D1042240F2FF710A90CDE9081294F8C4
:103008003021002A00F0F3804FF006080AEBCA03CB
:103018004FEACA0904EB43035B7C072B07D8DFE8B8
:1030280003F0595C5653504D4A04072307930FFA8F
:103038008AF6D14406EBC60604EB490904EB4607B9
:103048007500384600F01AFB99F81030042B00F38D
:10305800AA80022B00F3BD8000F0B98004EB0A03BC
:10306800002283F8202114F81630002B78D0022B88
:1030780000F08A80012B40F0B2807B78012B00F0B1
:10308800B080002B334B18BF002305A93048CDE989
:10309800053802F04DFC002840F0AC800AF1010A26
:1030A80094F830315FFA8AFA534540F2A0802A4BEF
:1030B80053F82A80AAE706230793B8E7052307935E
:1030C800B5E704230793B2E703230793AFE7022387
:1030D8000793ACE700230793A9E701230793A6E723
:1030E800FFBEFEE703224023C4E96A236CE70722F8
:1030F8006023C4E96A2367E70F228023C4E96A23AF
:1031080062E71F22A023C4E96A235DE73F22C023A8
:10311800C4E96A2358E77F22E023C4E96A2353E716
:10312800FF224FF48073C4E96A234DE740F2FF128F
:103138004FF49073C4E96A2346E740F2FF324FF434
:10314800A073C4E96A233FE7181806240020024048
:10315800841906240002B025684801080841003097
:103168007B78062B37D0072B3DD0022B4AD0032B78
:103178004AD0002B4CD0012B48D0042B4AD0052B29
:10318800254B18BF002380E77B78042B25D0052B1F
:103198002BD08BB3012B31D0022B31D0032B1F4BFB
:1031A80018BF002371E70323043504EB0A0B4FF023
:1031B800000925448BF82031284609F1010900F05F
:1031C8005DFA9BF8203104354B45F5DC4BE70123CC
:1031D800EAE70223E8E7124B57E7124B55E70023CB
:1031E80053E7114B51E7114B4FE7114B4DE70DB02A
:1031F800BDE8F08FFFBEFEE70E4B46E70E4B44E7F7
:103208000E4B42E70E4B40E70E4B3EE70E4B3CE7BA
:103218000E4B3AE70E4B38E70000B84F00209036C7
:103228000800900C1000C0102000F0148000501D01
:10323800000180210004002A0008302E00106032AE
:103248000040C03A0080F03E000052470000214391
:103258000000844B38B5094C40F2FF724FF0011161
:1032680004F5B675284603F043F894F83021D4F8ED
:1032780064112846BDE8384002F0AEBD181806248F
:10328800034B0F29D3F8640198BF00EB4100704746
:1032980018180624214B02689A4200D07047204A29
:1032A80000232048D2F8D81030B51F4C41F0200137
:1032B80083B0C4F8D001092004F5E875C4E97503A2
:1032C8004FF48060C2F8D810D2F8D8204FF40061CB
:1032D800C4E9773094F8480202F02002C4F8E411F7
:1032E8004FF40051984201922846C4F8E811C4E905
:1032F8007C33019B14BF00234FF48073C4F8EC3176
:1033080003F06EFA08B1FFBEFEE704F5B673C4F821
:10331800B851C4F8083203B030BD00BF00200240E5
:10332800004402584000024018180624014803F0DF
:10333800CFBD00BFE819062402682DE9F84F4B4BB2
:103348009A4201D0BDE8F88F494D95F84832002BD4
:10335800F8D095F83031002B77D0002405F10C090E
:1033680005F5A17605F59877A04613E003F001016D
:1033780017F811BCA9F1080000F06AFABBF1010FB7
:1033880025D895F83031013409F112090236A2B274
:1033980093422BD917F8012F002AF4D0D5F86431BD
:1033A8000021327833F81400D5F8683103EB0413A0
:1033B80023F81200338801339BB233805FFA83FA13
:1033C8003A789A42D2D88A46A6F80080D0E7CAF35B
:1033D8004001A9F1040000F03BFABBF1020FCAF367
:1033E8008001CED0484600F033FACAE7002395F8AA
:1033F8004802204909229842C5F8D8314FF4806024
:10340800C5F8D011C5F8D4214FF400614FF400522B
:10341800C5F8DC3108BF4FF48073C5F8E821C5E969
:10342800780100221448C5E97B32C5F8F42103F07D
:10343800D7F908B1FFBEFEE795F83021D5F8641139
:103448000E48BDE8F84F02F0C7BC0A4909224FF4FC
:103458008060C5F8D831C5E974124FF400614FF4A3
:103468000052C5E97730C5E97912DAE70020024051
:103478001818062440000240E81906248419062476
:10348800704700BF10B592B0ADF804100180C9B202
:10349800149C0B29C460C0E901233FD090F801C0F7
:1034A800BCF10F0F3AD8022A3FD0032A02D0012AD2
:1034B80000D000220E92012B02D0022B18BF00234D
:1034C800022C0F932CD0032C2AD0012C28D00023B7
:1034D8000A29109327D85C4A02EB812202610A2943
:1034E80014D8DFE801F0A39587796B5D4F41332548
:1034F8000600564BD3F8E01041F48061C3F8E010A1
:10350800D3F8E03003F480630C930C9B01230DA9DE
:10351800104603FA0CF30D9304F02CF812B010BD0A
:103528000A291094D7D90022D8E711220E92C2E7AF
:10353800464BD3F8E01041F40071C3F8E010D3F81B
:10354800E03003F400730B930B9BDFE73F4BD3F89A
:10355800E01041F48071C3F8E010D3F8E03003F4D0
:1035680080730A930A9BD1E7384BD3F8E01041F0F7
:103578008001C3F8E010D3F8E03003F0800309932A
:10358800099BC3E7314BD3F8E01041F04001C3F881
:10359800E010D3F8E03003F040030893089BB5E748
:1035A8002A4BD3F8E01041F02001C3F8E010D3F81B
:1035B800E03003F020030793079BA7E7234BD3F8DA
:1035C800E01041F01001C3F8E010D3F8E03003F048
:1035D80010030693069B99E71C4BD3F8E01041F0C3
:1035E8000801C3F8E010D3F8E03003F008030593AE
:1035F800059B8BE7154BD3F8E01041F00401C3F8A5
:10360800E010D3F8E03003F004030493049B7DE753
:103618000E4BD3F8E01041F00201C3F8E010D3F8E4
:10362800E03003F002030393039B6FE7074BD3F8E3
:10363800E01041F00101C3F8E010D3F8E03003F0E6
:1036480001030293029B61E70000025800440258FC
:1036580008B5012143780069994089B204F092F9CC
:10366800003818BF012008BD01230A4641780069C7
:1036780003FA01F189B204F08BB900BF8378022BF9
:1036880030B504468FB037D0032B33D0012B31D05F
:1036980000230A93E378012B2AD0022B28D0002399
:1036A8000B93002320460C9301F0BCFF05462046EF
:1036B80001F0C0FF23780990082B13D8DFE803F046
:1036C8001F3245586B7E91A40500594BD3F8E02072
:1036D80042F48072C3F8E020D3F8E03003F480733A
:1036E8000893089B09A9284603F044FF0FB030BD92
:1036F8000B93D6E70A93CDE711230A93CAE74C4BFD
:1037080009A92846D3F8E02042F00102C3F8E020D6
:10371800D3F8E03003F001030093009B03F02AFF85
:103728000FB030BD424B09A92846D3F8E02042F03B
:103738000202C3F8E020D3F8E03003F0020301935B
:10374800019B03F017FF0FB030BD394B09A928467C
:10375800D3F8E02042F00402C3F8E020D3F8E030C8
:1037680003F004030293029B03F004FF0FB030BD83
:103778002F4B09A92846D3F8E02042F00802C3F8E5
:10378800E020D3F8E03003F008030393039B03F031
:10379800F1FE0FB030BD264B09A92846D3F8E0202A
:1037A80042F01002C3F8E020D3F8E03003F0100331
:1037B8000493049B03F0DEFE0FB030BD1C4B09A937
:1037C8002846D3F8E02042F02002C3F8E020D3F8DE
:1037D800E03003F020030593059B03F0CBFE0FB008
:1037E80030BD134B09A92846D3F8E02042F0400227
:1037F800C3F8E020D3F8E03003F040030693069BBB
:1038080003F0B8FE0FB030BD094B09A92846D3F81C
:10381800E02042F08002C3F8E020D3F8E03003F063
:1038280080030793079B03F0A5FE0FB030BD00BFD0
:103838000044025838B5054601F0F4FE044628460F
:1038480001F0F8FE01462046BDE8384004F09AB879
:1038580070B506460D4601F0E5FE0446304601F017
:10386800E9FE2A1E0146204618BF0122BDE8704025
:1038780004F08EB82DE9F84F04460E4617469846D0
:1038880000F18C05284606F081F92028FAD1206835
:103898002E4B0128636106D0022843D000283ED071
:1038A8000120BDE8F88F2423A3614023002004F100
:1038B8001409E3614FF480632062A0636362C4E982
:1038C8000A00C4E90C00C4E91000484602F088FF69
:1038D80008B1FFBEFEE7C4F8C490E564EFF3108AB0
:1038E80072B6DFF8709094F900300A9ADFF868B081
:1038F80089F80030CBF80020E3680B9A144C22605A
:103908009BB9710043463A46284689B204F0D8FE6E
:1039180090B9BAF1000FC4D162B6BDE8F88F22237E
:10392800A361C2E74A23A361BFE742463946284656
:1039380005F038F80028ECD0FF23012089F8003082
:103948000023CBF800302360E3E700BFA00002406B
:103958006C1A0624681A0624641A06242DE9F84FFE
:1039680004460E461746984600F18C05284606F090
:103978000DF92028FAD120682D4B0128636106D063
:10398800022842D000283DD00120BDE8F88F23232B
:10399800A36100204FF4806304F11409A0636362FB
:1039A800C4E90700C4E90A00C4E90C00C4E910002E
:1039B800484602F015FF08B1FFBEFEE7C4F8C890FC
:1039C800E564EFF3108A72B6DFF86C9094F9003072
:1039D8000A9ADFF868B089F80030CBF80020E3686D
:1039E8000B9A144C22609BB9710043463A4628460C
:1039F80089B204F01FFF90B9BAF1000FC5D162B6C1
:103A0800BDE8F88F2123A361C3E74923A361C0E779
:103A180042463946284605F031F80028ECD0FF2305
:103A2800012089F800300023CBF800302360E3E759
:103A3800A00002406C1A0624681A0624641A062498
:103A48000023122270B586B0CDE9022304930368DF
:103A5800032B01D804230593061D841D304601F06D
:103A6800E1FD0546304601F0E5FD034601A928467B
:103A7800019303F07FFD204601F0D4FD0346204664
:103A88001C4601F0D7FD01A903462046019303F027
:103A980071FD06B070BD00BF634A0368934210B55C
:103AA8008CB028D0614A934258D0614A934200F0C2
:103AB8009480604A934201D00CB010BD5E4C5F48C0
:103AC800D4F8E03043F00203C4F8E030D4F8E03032
:103AD80003F002030A930A9BFFF7B2FFD4F8F4300D
:103AE80043F08003C4F8F430D4F8F43003F08003D2
:103AF8000B930B9BE0E7504C5148D4F8E03043F06F
:103B08000203C4F8E030D4F8E03003F00203019374
:103B1800019BFFF795FFD4F8E83000221F2043F4FB
:103B280000131146C4F8E830D4F8E83003F4001361
:103B38000293029BD4F8D83043F00103C4F8D8307C
:103B4800D4F8D83003F001030393039B02F096FCEA
:103B58001F200CB0BDE8104002F0CEBC364C3948EE
:103B6800D4F8E03043F08003C4F8E030D4F8E03013
:103B780003F080030493049BD4F8E03043F002037D
:103B8800C4F8E030D4F8E03003F002030593059B55
:103B9800FFF756FFD4F8E8300022212043F48003D1
:103BA8001146C4F8E830D4F8E83003F480030693EB
:103BB800069BD4F8D83043F00103C4F8D830D4F8C1
:103BC800D83003F001030793079B02F057FC21202C
:103BD8000CB0BDE8104002F08FBC1B48FFF730FF67
:103BE800154B00224820D3F8E840114644F400045D
:103BF800C3F8E840D3F8E84004F400040894089CAB
:103C0800D3F8D84044F00104C3F8D840D3F8D830EA
:103C180003F001030993099B02F030FC48200CB023
:103C2800BDE8104002F068BC005400400058004055
:103C3800005C0040001C005800440258F81C062490
:103C4800701A0624481B0624201C06242DE9F0437C
:103C58001A4B87B000254FF010099E46EC46184BCA
:103C6800FF22E04667461A700EF118060EF130047E
:103C7800CDE90055CDE90255ADF80090BCE80F003C
:103C8800CDE90455AEE80F009CE803000095ADF8B7
:103C980000908EE80300B8E80F000FC69CE8030008
:103CA8000095ADF8009086E803000FCF0FC49CE89C
:103CB800030084E8030007B0BDE8F0830400002493
:103CC800681A062410B5EFF3108472B6084B1A78F8
:103CD800120602D504B962B610BD1B78D822054871
:103CE8005BB202FB0300143003F0F2F8F2E700BF06
:103CF800681A0624701A0624014804F02DBF00BF74
:103D0800FC1A0624014804F027BF00BFD41B062470
:103D1800014804F021BF00BFAC1C06242DE9F04186
:103D280082B0EFF3108772B61C4AFF211C4C13684F
:103D3800217023B1002111601A4A1068984723782E
:103D48001B0617D5DFF864800025174E44466268C5
:103D58005AB16369304693B923690193E3680093C4
:103D680023892188FFF786FD90B101351834D836AC
:103D7800032DECD107B962B602B0BDE8F081D4E9F1
:103D88000331CDE9003123892188FFF7E7FDEBE70F
:103D980005EB450508EBC5056860EBE7641A0624E2
:103DA800681A06246C1A0624701A062404000024D3
:103DB8002DE9F04182B0EFF3108772B61C4AFF215B
:103DC8001C4C1368217023B1002111601A4A106835
:103DD800984723781B0617D5DFF864800025174E0F
:103DE800444662685AB16369304693B923690193BE
:103DF800E368009323892188FFF73CFD90B10135E2
:103E08001834D836032DECD107B962B602B0BDE834
:103E1800F081D4E90331CDE9003123892188FFF706
:103E28009DFDEBE705EB450508EBC5056860EBE78D
:103E3800641A0624681A06246C1A0624701A0624C2
:103E4800040000242DE9F04182B0EFF3108772B628
:103E58001C4AFF211C4C1368217023B100211160FA
:103E68001A4A1068984723781B0617D5DFF864802C
:103E78000025174E444662685AB16369304693B9C3
:103E880023690193E368009323892188FFF7F2FCF3
:103E980090B101351834D836032DECD107B962B684
:103EA80002B0BDE8F081D4E90331CDE900312389BE
:103EB8002188FFF753FDEBE705EB450508EBC50542
:103EC8006860EBE7641A0624681A06246C1A06244C
:103ED800701A0624040000242DE9F04182B0EFF3A3
:103EE800108772B61C4AFF211C4C1368217023B13D
:103EF800002111601A4A1068984723781B0617D5C5
:103F0800DFF864800025174E444662685AB1636939
:103F1800304693B923690193E36800932389218884
:103F2800FFF7A8FC90B101351834D836032DECD131
:103F380007B962B602B0BDE8F081D4E90331CDE932
:103F4800003123892188FFF709FDEBE705EB4505DB
:103F580008EBC5056860EBE7641A0624681A0624AE
:103F68006C1A0624701A0624040000242DE9F04176
:103F780082B0EFF3108772B604F094F91D4A1E4C14
:103F8800FF21136821702BB10021116001211B4A08
:103F98001068984723781B0617D5DFF86880002536
:103FA800174E444662685AB16369304693B923692B
:103FB8000193E368009323892188FFF75BFC90B1A4
:103FC80001351834D836032DECD107B962B602B0E2
:103FD800BDE8F081D4E90331CDE900312389218896
:103FE800FFF7BCFCEBE705EB450508EBC50568608A
:103FF800EBE700BF641A0624681A06246C1A062424
:10400800701A0624040000242DE9F0430F68D82410
:104018003F4D85B007FB04F4032F05EB0403036051
:1040280040DCCB680E46012B3CD84DD04FF0D80869
:10403800B646DFF8FC9008FB0758BEE80F00C446F8
:10404800ACE80F00DEF800300DF1100ECCF80030AF
:10405800D8F808C099E80F000EE90F000EEB8703A7
:10406800BCF1010F53F8103CC8F88C3031D0BCF1CA
:10407800020F42D0BCF1000F35D0317C8C34D823EC
:10408800002201202C4403FB07534900C3E9260200
:10409800C3F894102046C3E92822C3E92A2204F071
:1040A80001F918B1012005B0BDE8F08301462046AA
:1040B80005F070FD0028F5D10146204605F094FD75
:1040C800003818BF0120EEE70B7C103B672BADD9F9
:1040D800E8E701F021F90F4B98420CBF0E4B0F4B4C
:1040E800C8F89030C9E701F017F90A4B98420CBF9D
:1040F8000B4B0C4BC8F89030BFE701F00DF9054B9E
:1041080098420CBF084B094BC8F89030B5E700BF80
:10411800701A0624000E27072D0FB0303211D02058
:104128005F4390608A62E030200BA0101A0980106B
:10413800C4470108006870472DE9F041D0F80080B5
:1041480082B00D4617461E4608F18C04204605F03D
:104158001DFD2028FAD1D8F80C3073B96D0020461F
:10416800089C33463A46A9B2009404F0F1F80038A6
:1041780018BF012002B0BDE8F081089B32463946DD
:10418800204604F0B9F9F2E700682DE9F041046827
:10419800032CDDE9067821D0124D2D782D0617D491
:1041A8008E469C46EFF3108372B60F4D04EB440421
:1041B800002025F8341005EBC4046260A4F808C098
:1041C8006061C4E903780BB962B61846BDE8F081AE
:1041D800CDE90678BDE8F041FFF74CBB0120BDE80A
:1041E800F08100BF681A062404000024044B102242
:1041F8001A7483F8E82083F8C02183F8982270475E
:10420800701A062430B5002395B04FF48071062249
:1042180004460B9306921393CDE90C13CDE90E33A4
:10422800CDE9113301F07AF807282BD004F11005F5
:1042380041F2883206A9284606F0E8FA28B1012397
:10424800184684F85C3015B030BD0222022306A956
:104258002846CDE9002310220123CDE902230022BC
:104268004FF48003CDE9042305224FF080730692B2
:104278006A460F9341F2883306F034FC0028DED1F9
:1042880015B030BD0323012084F85C3015B030BD73
:1042980070B50023A4B04FF080724FF480750446C7
:1042A800ADF806300D93CDE910320122CDE90E5359
:1042B800CDE91223CDE91433002943D0F02300F1CE
:1042C800100508AEADF80630C02341F288323146F9
:1042D8002846089306F09AFA28B10123184684F86C
:1042E8005C3024B070BD41F288320DF106012846D9
:1042F80006F0F6FA03460028EFD105224FF4807144
:104308001E93284616924FF080721B9321931F929A
:1043180002AA9FED1F7BCDE91C13CDE922338DED59
:10432800027B9FED1D7B41F2883316A98DED047B3E
:104338009FED1B7B8DED067B06F0D4FB0028CCD1CE
:1043480024B070BD00F1100508AE612341F2883237
:1043580031462846089306F059FA0028BDD141F2A3
:1043680088320DF10601284606F038FB0028B4D142
:10437800BDF80630204623F0780343F04003ADF83B
:104388000630FFF73FFF00289ED0A6E7AFF3008076
:104398000000000001000000100000000100000003
:1043A80000000000000040002DE9F04F00234FF40A
:1043B800807501264FF0807804462DED028BABB056
:1043C8008DF8073013932193299314950E96CDF801
:1043D8005C80CDE91533CDE91863CDE91A33CDE911
:1043E8002253CDE92433CDE9273306231C9300F06B
:1043F80095FF072808D004F1100741F288321CA95C
:10440800384606F003FA40B10123184684F85C30B8
:104418002BB0BDEC028BBDE8F08F4FF0020A4FF0D5
:10442800020B4FF0050941F2883308AA1CA9384647
:10443800CDF89480CDF870909FED2D8BCDE908AB29
:104448004FF0000A4FF4800B8DED0A8BCDE90CABD1
:1044580006F048FB0028D7D141F2883238460EA929
:1044680006F0D4F90028CFD1402341F288320DF16B
:10447800070138468DF8073006F032FA0028C3D114
:1044880041F288330EA902AA3846CDF83890CDF803
:104498005C809FED197B8DED048BCDE906AB8DED2E
:1044A800027B06F01FFB03460028ADD1CDF87090C3
:1044B8004FF00109CDF894804FF00008219308AA25
:1044C80029931CA938462295CDE92333CDE9273312
:1044D80041F288338DED0A8BCDE90CABCDE9088923
:1044E80006F000FB002893D0304684F85C608FE724
:1044F8001000000001000000400000004000000023
:104508002DE9F043624CA3B00D46046000F006FFAD
:10451800072800F0A980286823466968AA6807C3A5
:104528001E46AB8926F8043B3046257B677B06F0A0
:104538004FF9E0B9574B012D4FF00108E0612361B5
:1045480014BF4FF480134FF40003C4E9058893FAAD
:10455800A3F3B3FA83F34FF48079013BC4F82490B2
:10456800C4E90B003046236206F0C6F838B10122D0
:10457800134684F85C20184623B0BDE8F083662310
:104588000B90139041F2883206A90693CDE90C905E
:10459800CDE90E00CDE91100304606F037F90028C4
:1045A800E5D1992341F2883206A93046069306F0F0
:1045B8002DF90028DBD105231C9019906A46149325
:1045C8004FF08073219014A91D9341F288339FED19
:1045D8002A7BCDE91A90CDE91F008DED007B9FED78
:1045E800287B30468DED027B9FED277B8DED047B8C
:1045F80006F078FA0028BAD129462046FFF748FE87
:104608000028B4D12046FFF7CFFE03460028AED1DC
:10461800002FB0D1189330460027002606AA14A907
:10462800CDF86890CDE91F33EB2314934FF4406322
:104638001B934FF4005317934FF440431C93A0234C
:104648001693062319934FF0805321934FF040732C
:10465800CDE906671D9306F0BDFA034600288AD007
:10466800434684F85C8086E701230322184684F8D1
:104678005C2023B0BDE8F0830000000001000000CA
:1046880010000000010000000000000000004000D1
:10469800D01D0624005000522DE9F04F8FB0414B39
:1046A8000024026800AF9A427C63C7E90944C7E95D
:1046B8000B4403D03C37BD46BDE8F08F3A4B40F67B
:1046C80009213A48EB46D3F8D42007F11C0607F134
:1046D800220A4FF0020942F480424FF00308C3F85F
:1046E800D420D3F8D42002F48042BA60BA68D3F850
:1046F800E02042F04002C3F8E020D3F8E02002F0C6
:104708004002FA60FA68D3F8E02042F02002C3F8C9
:10471800E020D3F8E02002F020023A613A69D3F8A9
:10472800E02042F01002C3F8E020D3F8E02002F0C5
:1047380010027A617A69D3F8E02042F00202C3F8E5
:10474800E020D3F8E030F86103F002033984BB615C
:10475800174B7B60BB697B6853F8040F7B6000F0E4
:1047680061FF7B680546186800F064FF16F8013B96
:10477800786207F124012846C7F830807B63C7E9CF
:104788000A9402F0F7FE5645E5D100225C20114656
:1047980001F074FE5C2001F0AFFE3C37DD46BD46FB
:1047A800BDE8F08F00500052004402580A0A090977
:1047B8002C1E0624114B02689A4200D07047104AFA
:1047C80070B5D2F8D4300F4C23F4804304F11806A6
:1047D800C2F8D43054F8040F00F024FF05462068CE
:1047E80000F028FF0146284603F004F8B442F1D14E
:1047F8005C20BDE8704001F08DBE00BF0050005243
:10480800004402582C1E0624014806F06FBA00BF67
:10481800E01D0624084B1A1D981D03F1080110B469
:104828009C1C9A6603F10A02C3E91834C3E91B0108
:104838005DF8044B5A677047D01D062438B50368E5
:1048480071B9026A00F1280500F5AC74012A0CBFA1
:10485800002140218BBB1D4B5722C0F858310DE079
:10486800426A00F1C00500F5E874012A0CBF002176
:104878004021EBB1164B5A22C0F8D0310023204614
:10488800C4E901214FF480524FF480616362626190
:104898004FF48042C4E903314FF48073C4E906231E
:1048A8004FF40033236201F09BFF58B1FFBEFEE7CF
:1048B800084B5822C0F8D031E0E7074B5922C0F81E
:1048C8005831DBE7C5E92044A56338BD1000024034
:1048D8007000024028000240580002402DE9F043D1
:1048E800821D05468BB0031D05F10A010830CDE98C
:1048F800052305F10C02AB69CDE907010992002BEC
:104908003DD0EB69B3FA83F84FEA58180123022225
:1049180005AE0AAF4FF006090393CDE9012356F817
:10492800044B2B792278934216D02B68F3B1012BD4
:1049380002D1F2B10A230493204600F07BFE03461D
:104948002046009300F06EFE694602F013FEBE4258
:10495800E5D10BB0BDE8F083697963789942E4D179
:10496800B8F1000FF3D02B68002BE0D1CDF81090F0
:10497800E2E76378022B14BF0A230823DBE74FF032
:104988000108C3E7534A0368934230B505468BB024
:1049980055D02032934252D04F4A934204D020320D
:1049A800934201D00BB030BD4C4C4D48D4F8E030A8
:1049B80043F00103C4F8E030D4F8E03003F0010319
:1049C8000593059BD4F8E03043F00803C4F8E030C1
:1049D800D4F8E03003F008030693069BD4F8E030DF
:1049E80043F04003C4F8E030D4F8E03003F040036B
:1049F8000793079BD4F8F03043F40003C4F8F03071
:104A0800D4F8F03003F400030893089BFFF766FF1F
:104A1800D4F8D830296843F001032F4A3048C4F845
:104A2800D830891AD4F8D83018BF012103F001030F
:104A38000993099B0BB0BDE83040FFF7FFBE274C38
:104A48002848D4F8E03043F00103C4F8E030D4F843
:104A5800E03003F001030093009BD4F8E03043F00A
:104A68001003C4F8E030D4F8E03003F010030193E9
:104A7800019BD4F8E03043F04003C4F8E030D4F8A8
:104A8800E03003F040030293029BD4F8F03043F483
:104A98008003C4F8F030D4F8F03003F480030393B3
:104AA800039BFFF71BFFD4F8D830296843F00103B4
:104AB800084A0C48C4F8D830891AD4F8D83018BF36
:104AC800012103F001030493049B0BB0BDE83040BF
:104AD800FFF7B4BE04580140045C0140004402588A
:104AE800A4200624481E0624014802F0F1B900BF9C
:104AF800A01F0624014802F0EBB900BF18200624C5
:104B0800014802F0E5B900BFFC210624014802F083
:104B1800DFB900BF742206241A4A0368934210B40E
:104B28000BD02032934208D0174A934216D0203235
:104B3800934213D05DF8044B7047144B0022D3F80E
:104B48005442C3F85822002CF4D0D3F84802D3E9D1
:104B5800931223465DF8044B520818470B4B00226A
:104B6800D3F8B044C3F8B424002CE3D0D3F8AC2471
:104B7800D3F8A814D3F8A404520823465DF8044BCC
:104B8800184700BF04580140045C0140481E062431
:104B9800184A0368934210B40BD02032934208D0CD
:104BA800154A934217D02032934214D05DF8044B33
:104BB8007047124BD3E994245208C3F85822002CAA
:104BC800F4D0D3E99201234601EB820100EB820085
:104BD8005DF8044B1847094BD3F8AC24D3F8B0441C
:104BE8005208C3F8B424002CE0D0D3F8A814D3F8A2
:104BF800A404E8E704580140045C0140481E062468
:104C08002DE9F04F0C684FF41776754F87B004FB09
:104C180006F6012C07EB060AC0F800A000F3A080F6
:104C28000D468E464FF00008D44669A3D3E9002309
:104C380069A1D1E90001CDE9022306ABCAF8508287
:104C480003EB8403CDE9040153F810BC53F8083C86
:104C5800CAE992880193BEE80F00ACE80F00BEE8ED
:104C68000F00ACE80F00019B9EE80300CAF828B0CB
:104C7800CAF8C0308CE803002B69042B0CD8DFE895
:104C880003F0737D879103004FF41773554A03FBB4
:104C980004739A64C3F8E020AA692B6A002A43D0F7
:104CA800002B4FF4177308BF022203FB047318BFCD
:104CB8000322DA6201221A63EA696B6A002A40D188
:104CC800191E4FF4177318BF012103FB0473C3E9BE
:104CD80031126B69022B05D8434A12F80380434A04
:104CE80052F823904FF4177306F1280042464946BC
:104CF80003FB04740023384463646363E365C4F806
:104D0800DC30C4F8CC30C4F8F430C4E90F33C4E95B
:104D18001533C4E93533C4E93B33022308F088F876
:104D2800002849D0FFBEFEE7191E4FF4177318BFBD
:104D3800012103FB0473C3E90B12EA696B6A002AB9
:104D4800BED0002B4FF4177308BF022203FB047375
:104D580018BF0322C3F8C4200122C3F8C820B8E74B
:104D6800012007B0BDE8F08F4FF417734FF4FA52E3
:104D780003FB04739A64C3F8E0208DE74FF41773BC
:104D88004FF47A5203FB04739A64C3F8E02083E774
:104D98004FF417734FF4FA4203FB04739A64C3F891
:104DA800E02079E74FF417734BF6803203FB047366
:104DB8009A64C3F8E0206FE706F1C0000223424678
:104DC8004946384408F034F80028CAD0FFBEFEE748
:104DD80004580140045C014024580140245C01400F
:104DE800481E062400770100A8480108AC480108BD
:104DF8000068704770B5046882B015460E46C4F85E
:104E08005032C4E99212069AC4F85422A269012ABF
:104E180026D0626A012A9AB211D0294604F1C0004C
:104E2800019208F0C1F8236A019A012B10D0294693
:104E380004F1280008F0B8F8002002B070BD04F1B1
:104E4800C000019208F042F9236A019A012BEED1C1
:104E5800314604F1280008F039F9002002B070BD8D
:104E6800226A012A9AB211D0294604F12800019237
:104E780008F09AF8636A019A012B10D0294604F1C8
:104E8800C00008F091F8002002B070BD04F12800BD
:104E9800019208F01BF9636A019A012BEED13146A1
:104EA80004F1C00008F012F9002002B070BD00BF84
:104EB80003681B69042B05D8044A02EB830393EDAE
:104EC800000A70479FED020A704700BFB848010802
:104ED80000803B470368D3F858027047704700BF0B
:104EE80008B500F0AFFCBDE8084001F08FBB00BF7B
:104EF800064808B503680BB102F04EFD0448036884
:104F08001BB1BDE8084004F09BBE08BD102706246D
:104F180008230624064808B503680BB102F03CFDD7
:104F2800044803681BB1BDE8084004F089BE08BD09
:104F38001027062408230624064808B503680BB181
:104F480002F02AFD044803681BB1BDE8084004F0DC
:104F580077BE08BD1027062408230624364BDA6AD4
:104F6800520062D59A6A9A6A9A6A9B6A180600D5AC
:104F780000BE314B9B6A990600D500BE2E4B9B6A3A
:104F8800DA0600D500BE2C4B9B6A1B0700D500BE75
:104F9800294B9B6A980700D500BE274B9B6AD90707
:104FA80000D500BE244B9B6A1A0400D500BE224BD4
:104FB8009B6A9B0400D500BE1F4B9B6AD80400D592
:104FC80000BE1D4B9B6A190500D500BE1A4B9B6A93
:104FD8005A0500D500BE184B9B6A9B0500D500BE3C
:104FE800154B9B6AD80500D500BE134B9B6A9901E7
:104FF80000D500BE104B9B6ADA0100D500BE0E4BEF
:105008009B6A1B0300D500BE0B4B9B6A580300D557
:1050180000BE094B9B6A990300D500BE064B9B6AEC
:10502800DA0306D400BE00BEFEE7DB6A9B07FAD5AA
:10503800F8E700BEF6E700BF00ED00E000F00EBCA8
:1050480000F012BC2DE9F041CEB004464C220021FC
:105058000AA80FF09FFA2022002102A80FF09AFA5E
:10506800BC2200211EA80FF095FA022005F05CFA78
:105078002368012B4FF0000354D0534A02250193B3
:10508800C820D16A514B21F00101D162D26A02F0E5
:10509800010201929A6942F440429A619B6903F4C1
:1050A80040430193019B494A93699B04FCD54849B5
:1050B8000224002201268B6A04274FF0080823F0F7
:1050C800030323438B62052316900AA818934FF411
:1050D80080331096179419941597CDF86880CDE908
:1050E8001B222122CDE91344CDE90A2305F006FF4E
:1050F80000B1FEE73F220323294602A8CDE9022397
:1051080000220823CDE9042340224023CDE90623C9
:1051180040234FF48062CDE9082306F01DFA0346C8
:10512800B8B1FEE7294A04250093F0209169264B7F
:1051380041F440419161926902F440420092DA6A76
:1051480042F00102DA62DB6A03F001030093009B7C
:10515800A9E720224FF4805125934FF440152B9254
:1051680080222D931EA83093269135914FF480719B
:10517800249234920C223394439140F227112092C6
:105188001022CDF884802A971F96CDE92E34CDE9D8
:105198003B334FF48033CDE92246319300244693C4
:1051A8000623CDE93E4527934FF48063094C2C93A1
:1051B8001E94CDE9281206F02BFC00B1FEE705F09D
:1051C800D9F94EB0BDE8F0810004005800480258F3
:1051D800004402580F130F032DE9F0410D46044611
:1051E80084B0D1E9000184E8030000F0FBFAAE794D
:1051F800002E37D06F460BF009FBFEF727FD09F0AC
:1052080079FF0BF005F82B79002B54D16B799BB102
:10521800BFF34F8FBFF36F8F3C4B0022C3F8502270
:10522800BFF34F8FBFF36F8F5A6942F400325A6150
:10523800BFF34F8FBFF36F8F4FF0FF32002300246F
:1052480000253946324802928DF80C30CDE90045E8
:105258000AF070FB2E480AF0D5FB09F07BFB04B07E
:10526800BDE8F08120466F46FFF7ECFE012401F00F
:105278007BF94FF040534FF4807838460193254B23
:10528800ADF80040CDE9023801F08CF919224FF051
:10529800404338468DF80F40ADF80D808DF8014039
:1052A8008DF80A608DF80820019301F07BF904203D
:1052B80001F068F99FE7154C0023C4F88430BFF368
:1052C8004F8FD4F8803043F6E07EC3F3C906C3F3AA
:1052D8004E334FEA431C0CEA0E00334640EA837211
:1052E800013BC4F860225A1CF8D1ACF1200C1CF127
:1052F800200FF0D1BFF34F8F636943F480336361AC
:10530800BFF34F8FBFF36F8F80E700BF00ED00E062
:10531800002306240E00010306F04EBA1C4B9B68BE
:1053280003F17842B2F5003F25D3B3F5803F20D38F
:1053380003F16042B2F5003F1FD303F15C42B2F5BE
:10534800002F1CD303F17042B2F5902F19D303F14B
:105358004842B2F5803F16D303F18042B2F1806F24
:1053680013D303F1E043B3F5000F2CBF0820072047
:1053780070470120704700207047022070470320C3
:10538800704704207047052070470620704700BF0B
:1053980000ED00E003480023034A044903600EF0CF
:1053A800C9BC00BF0023062400000024E54E000805
:1053B80010B4204C0022204B83B0D4F888101F482A
:1053C80041F47001C4F8881019681D4C41F00101BE
:1053D80019601A61196808401A4918609A61DA61F7
:1053E8001A629A62DA621A635A639A63DA631A640F
:1053F8005A64186820F4802018601A66D3F8DC20F4
:1054080042F06042C3F8DC20D3F8DC300193019B02
:1054180023681940B1F1005F03D20B4B0122C3F896
:105428000821044B4FF000629A6003B05DF8044B0A
:10543800704700BF00ED00E0004402587FEDF6EA37
:105448000010005C0000FFFF0080005100F5717142
:10545800D0F8040408F066BEC1EBC10300EB830377
:10546800D0F80404D3F8082208F08ABEC1EBC103BF
:1054780000EB8303D0F804049A6C08F0BFBE00BFA9
:10548800D0F8040408F05EBFC16810B5044619B12D
:10549800022900D0FEE70121D4F8040408F03CFFFB
:1054A800D4F80404BDE8104008F00EBF10B5044657
:1054B800D0F8040408F034FF2268D2F8003E43F024
:1054C8000103C2F8003E236A23B1034A136943F07B
:1054D8000603136110BD00BF00ED00E0D0F804041E
:1054E80008F028BFD0F8040408F03CBFD0F8040442
:1054F80008F036BFD0F8040408F036BFD0F804042A
:1055080008F034BF9446D0F898021A4608B56346A6
:1055180004F0FAFE032802D8024B185C08BD0220EA
:1055280008BD00BFDC480108D0F8980208B504F0AF
:1055380079FF032802D8024B185C08BD022008BD79
:10554800DC480108D0F8980208B504F0AFFF03283A
:1055580002D8024B185C08BD022008BDDC480108CF
:105568000A06D0F8983206D4C1EBC10103EB8101D9
:1055780091F8FE01704701F07F01C1EBC10103EB17
:10558800810191F83E007047D0F8980208B504F000
:10559800A5FE032802D8024B185C08BD022008BDEE
:1055A800DC480108D0F8980208B504F013FF032876
:1055B80002D8024B185C08BD022008BDDC4801086F
:1055C800D0F8980208B504F0DDFE032802D8024B93
:1055D800185C08BD022008BDDC480108D0F8C002EC
:1055E80009F072B9D0F8C00209F086B9D0F8C00243
:1055F80009F08EB9704700BFD0F8C00209F074B93D
:10560800D0F8C00209F074B9D0F8D00308B502F098
:1056180083FD032802D8024B185C08BD022008BD90
:10562800E0480108024B027853F82200704700BF97
:1056380004490108024B427833F81200704700BF52
:10564800E44801088CB00A2814D8DFE800F01523D4
:10565800313F4D5B6977859306004D4BD3F8E020C9
:1056680042F48062C3F8E020D3F8E03003F48063AA
:105678000B930B9B0CB07047454BD3F8E02042F0DE
:105688000102C3F8E020D3F8E03003F001030193EE
:10569800019BEFE73E4BD3F8E02042F00202C3F84B
:1056A800E020D3F8E03003F002030293029BE1E725
:1056B800374BD3F8E02042F00402C3F8E020D3F8D7
:1056C800E03003F004030393039BD3E7304BD3F894
:1056D800E02042F00802C3F8E020D3F8E03003F0FD
:1056E80008030493049BC5E7294BD3F8E02042F054
:1056F8001002C3F8E020D3F8E03003F0100305935C
:10570800059BB7E7224BD3F8E02042F02002C3F80C
:10571800E020D3F8E03003F020030693069BA9E7C6
:105728001B4BD3F8E02042F04002C3F8E020D3F846
:10573800E03003F040030793079B9BE7144BD3F833
:10574800E02042F08002C3F8E020D3F8E03003F014
:1057580080030893089B8DE70D4BD3F8E02042F4B3
:105768008072C3F8E020D3F8E03003F48073099323
:10577800099B7FE7064BD3F8E02042F40072C3F898
:10578800E020D3F8E03003F400730A930A9B71E732
:1057980000440258704700BF0F4B1B780BB901201B
:1057A800704710B504464FF47A700C4AB0FBF3F317
:1057B8001068B0FBF3F000F0C1FE0F2C00D808B160
:1057C800012010BD002221464FF0FF3000F056FEA8
:1057D800034B00201C6010BD540000244C00002422
:1057E8005800002438B50320124D00F035FE124C45
:1057F80005F012FE114A12499369C3F30323CB5CE7
:1058080003F01F0320FA03F30E202B60926902F0C5
:105818000F028A5C02F01F02D3402360FFF7BCFF2F
:1058280010B10124204638BD0446FFF7B3FF2046D7
:1058380038BD00BF4C00002450000024004402582A
:10584800CC480108034A044B11681B780B441360C9
:10585800704700BFD429062454000024014B18685F
:10586800704700BFD429062438B50446FFF7F6FF71
:105878000546631C02D0044B1B781C44FFF7EEFF5F
:10588800431BA342FAD338BD54000024014B1868C7
:10589800000C70470010005C704700BF806B08B5B3
:1058A800FFF7FAFF08BD00BF836B5A6D12F0500F67
:1058B8005A6D10B51DD1196842F400725A650A680C
:1058C80012F0080FCA681BD012F4406F0DD1CA68D5
:1058D80094040AD45A6D22F480725A655A6DD10420
:1058E80003D45A6D42F001025A651846FDF724FDAB
:1058F80010BDD2060AD4DB6CBDE81040DB6C18473B
:105908009007E7D01846FDF717FDF1E71846FDF7B1
:10591800B7FD10BD806B08B5436D43F04003436588
:10592800836D43F004038365FDF7AAFD08BD00BF3E
:10593800F0B5002283B0019290F85020012A00F0BF
:105948001C81034601201A6883F850009468640794
:1059580000F18A800C68C4F31305002D40F08F8095
:10596800C4F38464A0404D684FF01F0ED6694FEA17
:10597800951C30430CF00C0CD06105F01F0002F1AF
:10598800300584400EFA00FE5CF8050020EA0E009F
:1059980004434CF80540906840076ED4956815F0AC
:1059A800080547D10C68072002F11406B94F4FEAE1
:1059B800D45CC4F304540CF0040C00FA04FE8868A8
:1059C80000FA04F45CF8060020EA0E0020434CF8C4
:1059D8000600386800F07040B0F1805F00F0C580C4
:1059E800D068D668C70600F1E880C6F38206486921
:1059F800760000FA06F60F69042F00F0C18002F164
:105A08006004086854F827C000F0F8400CF0004C17
:105A180040EA0C00304344F82700487E0E6901280C
:105A280054F8260008BF4FF0004520F00040054319
:105A380044F826509068C40714D4CE68086806F065
:105A48001807954CD2F8C050FC40C0F31307044027
:105A580025EA07052C43C2F8C040904CA64246D020
:105A6800002816DB002003E05A6D42F020025A6538
:105A7800002283F8502003B0F0BD9068DAE794FA6A
:105A8800A4F5B5FA85F5C4F3846405F01F05A840AC
:105A980069E783498A4200F0B68001F580718A423D
:105AA80000F0B1807F4D804CA968A46801F0E076D1
:105AB800E44304F00104002C00F0B4807B4CA042C5
:105AC80000F0FC807A4CA04200F01A81794CA04288
